:020000040000FA
:020000000528D1
:040002000034003492
:02000800ED28E1
:06000A00831603178901B3
:100010000130880083160313091089100911880123
:100020008701F03086000514831203138B170B1120
:100030008B1683160313811201148114011581118B
:1000400001170112831203139F131F179F121F1210
:100050009F111F111F14831603139F139F121F124A
:10006000831203138801890186010D30A500A600C3
:10007000A70054203928E420A7012608A700A601DC
:100080002508A600A5012408A500A4010800013048
:1000900086006A20023086008220043086009A2082
:1000A00008308600B220080001308900472025086A
:1000B000CA208800DB200230890047202608CA2099
:1000C0008800DB200430890047202708CA208800E8
:1000D000DB200800061E70280030A4003B2008002A
:1000E000861E76280130A4003B200800061F7C28CD
:1000F0000230A4003B200800861F82280330A400A1
:100100003B200800061E88280430A4003B2008007D
:10011000861E8E280530A4003B200800061F942868
:100120000630A4003B200800861F9A280730A40050
:100130003B200800061EA0280830A4003B20080031
:10014000861EA6280930A4003B200800061FAC2804
:100150000A30A4003B200800861FB2280B30A40000
:100160003B200800061EB8280C30A4003B200800E5
:10017000861EBE280D30A4003B200800061FC428A0
:100180000E30A4003B200800861F08000F30A4009A
:100190003B200800820730346D3479347D343334A9
:1001A0005B345F341F3470347F3473344E343D34E9
:1001B0007E344F3447343230A0003230A100A10BDE
:1001C000DF28A00BDD280800FA30A000FA30A100DB
:1001D000A10BE828A00BE6280800A300030EA2004C
:1001E0003121F8200B11220E8300A30E230E0900EB
:1001F00020301E02031C192940301E02031C1C293A
:1002000060301E02031C1F2980301E02031C22299D
:10021000A0301E02031C2529C0301E02031C282901
:10022000E0301E02031C2B29FF301E02031C2E2966
:1002300008000130870008000330870008000730FD
:10024000870008000F30870008001F308700080073
:100250003F30870008007F3087000800FF308700AC
:100260000800831203139F149F1834298312031369
:080270001E08831203130800AD
:02400E00F42F8D
:00000001FF
